{
  "contractName": "TodoList",
  "abi": [
    {
      "constant": true,
      "inputs": [],
      "name": "taskCount",
      "outputs": [
        {
          "internalType": "uint256",
          "name": "",
          "type": "uint256"
        }
      ],
      "payable": false,
      "stateMutability": "view",
      "type": "function"
    }
  ],
  "bytecode": "0x608060405260008055348015601357600080fd5b506080806100226000396000f3fe6080604052348015600f57600080fd5b506004361060285760003560e01c8063b6cb58a514602d575b600080fd5b60336045565b60408051918252519081900360200190f35b6000548156fea265627a7a723158209de8358f605a617cdced6d96e45ca21b4da8a1dc1217eb29b9bd8548ac130c7864736f6c63430005100032",
  "source": "pragma solidity >=0.4.22 <0.9.0;\r\n\r\ncontract TodoList{\r\n    uint public taskCount = 0;\r\n}",
  "sourcePath": "E:/work/Crazy Work/Etherium/eth-todo-list/contracts/TodoList.sol",
  "compiler": {
    "name": "solc",
    "version": "0.5.16+commit.9c3226ce.Emscripten.clang"
  },
  "schemaVersion": "3.3.3",
  "updatedAt": "2021-01-21T08:25:23.787Z",
  "networkType": "ethereum",
  "devdoc": {
    "methods": {}
  },
  "userdoc": {
    "methods": {}
  }
}